{
  "contractName": "KYCVerifier",
  "abi": [
    {
      "inputs": [],
      "stateMutability": "nonpayable",
      "type": "constructor"
    },
    {
      "anonymous": false,
      "inputs": [
        {
          "indexed": true,
          "internalType": "address",
          "name": "user",
          "type": "address"
        },
        {
          "indexed": false,
          "internalType": "string",
          "name": "documentHash",
          "type": "string"
        }
      ],
      "name": "KYCSubmitted",
      "type": "event"
    },
    {
      "anonymous": false,
      "inputs": [
        {
          "indexed": true,
          "internalType": "address",
          "name": "user",
          "type": "address"
        },
        {
          "indexed": false,
          "internalType": "bool",
          "name": "status",
          "type": "bool"
        }
      ],
      "name": "KYCVerified",
      "type": "event"
    },
    {
      "inputs": [
        {
          "internalType": "address",
          "name": "",
          "type": "address"
        }
      ],
      "name": "kycDocuments",
      "outputs": [
        {
          "internalType": "string",
          "name": "documentHash",
          "type": "string"
        },
        {
          "internalType": "string",
          "name": "documentType",
          "type": "string"
        },
        {
          "internalType": "bool",
          "name": "isVerified",
          "type": "bool"
        },
        {
          "internalType": "uint256",
          "name": "timestamp",
          "type": "uint256"
        }
      ],
      "stateMutability": "view",
      "type": "function",
      "constant": true
    },
    {
      "inputs": [],
      "name": "owner",
      "outputs": [
        {
          "internalType": "address",
          "name": "",
          "type": "address"
        }
      ],
      "stateMutability": "view",
      "type": "function",
      "constant": true
    },
    {
      "inputs": [
        {
          "internalType": "string",
          "name": "",
          "type": "string"
        }
      ],
      "name": "usedDocumentHashes",
      "outputs": [
        {
          "internalType": "bool",
          "name": "",
          "type": "bool"
        }
      ],
      "stateMutability": "view",
      "type": "function",
      "constant": true
    },
    {
      "inputs": [
        {
          "internalType": "string",
          "name": "documentHash",
          "type": "string"
        },
        {
          "internalType": "string",
          "name": "documentType",
          "type": "string"
        }
      ],
      "name": "submitKYC",
      "outputs": [],
      "stateMutability": "nonpayable",
      "type": "function"
    },
    {
      "inputs": [
        {
          "internalType": "string",
          "name": "documentHash",
          "type": "string"
        }
      ],
      "name": "submitKYC",
      "outputs": [],
      "stateMutability": "nonpayable",
      "type": "function"
    },
    {
      "inputs": [
        {
          "internalType": "address",
          "name": "user",
          "type": "address"
        },
        {
          "internalType": "bool",
          "name": "status",
          "type": "bool"
        }
      ],
      "name": "verifyKYC",
      "outputs": [],
      "stateMutability": "nonpayable",
      "type": "function"
    },
    {
      "inputs": [
        {
          "internalType": "address",
          "name": "user",
          "type": "address"
        }
      ],
      "name": "getKYCStatus",
      "outputs": [
        {
          "internalType": "bool",
          "name": "",
          "type": "bool"
        }
      ],
      "stateMutability": "view",
      "type": "function",
      "constant": true
    },
    {
      "inputs": [
        {
          "internalType": "address",
          "name": "user",
          "type": "address"
        }
      ],
      "name": "getDocumentHash",
      "outputs": [
        {
          "internalType": "string",
          "name": "",
          "type": "string"
        }
      ],
      "stateMutability": "view",
      "type": "function",
      "constant": true
    },
    {
      "inputs": [
        {
          "internalType": "string",
          "name": "documentHash",
          "type": "string"
        }
      ],
      "name": "isDocumentHashUsed",
      "outputs": [
        {
          "internalType": "bool",
          "name": "",
          "type": "bool"
        }
      ],
      "stateMutability": "view",
      "type": "function",
      "constant": true
    },
    {
      "inputs": [
        {
          "internalType": "address",
          "name": "user",
          "type": "address"
        }
      ],
      "name": "isKYCSubmitted",
      "outputs": [
        {
          "internalType": "bool",
          "name": "",
          "type": "bool"
        }
      ],
      "stateMutability": "view",
      "type": "function",
      "constant": true
    },
    {
      "inputs": [
        {
          "internalType": "address",
          "name": "user",
          "type": "address"
        }
      ],
      "name": "isKYCVerified",
      "outputs": [
        {
          "internalType": "bool",
          "name": "",
          "type": "bool"
        }
      ],
      "stateMutability": "view",
      "type": "function",
      "constant": true
    }
  ],
  "bytecode": "0x608060405234801561000f575f80fd5b50335f806101000a81548173ffffffffffffffffffffffffffffffffffffffff021916908373ffffffffffffffffffffffffffffffffffffffff1602179055506112098061005c5f395ff3fe608060405234801561000f575f80fd5b50600436106100a6575f3560e01c80634797304d1161006f5780634797304d1461016157806354b7636e14610191578063571de22a146101c15780638da5cb5b146101f1578063b10c3b401461020f578063e204257a1461023f576100a6565b80620c8df0146100aa5780630c670595146100da5780633053d4a0146100f6578063453ae3cf14610129578063474adb8f14610145575b5f80fd5b6100c460048036038101906100bf9190610998565b61026f565b6040516100d191906109dd565b60405180910390f35b6100f460048036038101906100ef9190610b32565b6102c4565b005b610110600480360381019061010b9190610998565b6104b0565b6040516101209493929190610c3a565b60405180910390f35b610143600480360381019061013e9190610c8b565b6105f4565b005b61015f600480360381019061015a9190610cfc565b610636565b005b61017b60048036038101906101769190610c8b565b61076c565b60405161018891906109dd565b60405180910390f35b6101ab60048036038101906101a69190610998565b61079f565b6040516101b891906109dd565b60405180910390f35b6101db60048036038101906101d69190610998565b6107b0565b6040516101e891906109dd565b60405180910390f35b6101f9610806565b6040516102069190610d49565b60405180910390f35b61022960048036038101906102249190610c8b565b610829565b60405161023691906109dd565b60405180910390f35b61025960048036038101906102549190610998565b61085e565b6040516102669190610d62565b60405180910390f35b5f60015f8373ffffffffffffffffffffffffffffffffffffffff1673ffffffffffffffffffffffffffffffffffffffff1681526020019081526020015f206002015f9054906101000a900460ff169050919050565b5f825111610307576040517f08c379a00000000000000000000000000000000000000000000000000000000081526004016102fe90610dcc565b60405180910390fd5b6002826040516103179190610e24565b90815260200160405180910390205f9054906101000a900460ff1615610372576040517f08c379a000000000000000000000000000000000000000000000000000000000815260040161036990610e84565b60405180910390fd5b60405180608001604052808381526020018281526020015f151581526020014281525060015f3373ffffffffffffffffffffffffffffffffffffffff1673ffffffffffffffffffffffffffffffffffffffff1681526020019081526020015f205f820151815f0190816103e5919061109c565b5060208201518160010190816103fb919061109c565b506040820151816002015f6101000a81548160ff02191690831515021790555060608201518160030155905050600160028360405161043a9190610e24565b90815260200160405180910390205f6101000a81548160ff0219169083151502179055503373ffffffffffffffffffffffffffffffffffffffff167fe3f81b273b142548431346476607dda7126d68317c9b8a1bbee298bc274dc5b0836040516104a49190610d62565b60405180910390a25050565b6001602052805f5260405f205f91509050805f0180546104cf90610ecf565b80601f01602080910402602001604051908101604052809291908181526020018280546104fb90610ecf565b80156105465780601f1061051d57610100808354040283529160200191610546565b820191905f5260205f20905b81548152906001019060200180831161052957829003601f168201915b50505050509080600101805461055b90610ecf565b80601f016020809104026020016040519081016040528092919081815260200182805461058790610ecf565b80156105d25780601f106105a9576101008083540402835291602001916105d2565b820191905f5260205f20905b8154815290600101906020018083116105b557829003601f168201915b505050505090806002015f9054906101000a900460ff16908060030154905084565b610633816040518060400160405280600781526020017f67656e65726963000000000000000000000000000000000000000000000000008152506102c4565b50565b5f60015f8473ffffffffffffffffffffffffffffffffffffffff1673ffffffffffffffffffffffffffffffffffffffff1681526020019081526020015f205f01805461068190610ecf565b9050116106c3576040517f08c379a00000000000000000000000000000000000000000000000000000000081526004016106ba906111b5565b60405180910390fd5b8060015f8473ffffffffffffffffffffffffffffffffffffffff1673ffffffffffffffffffffffffffffffffffffffff1681526020019081526020015f206002015f6101000a81548160ff0219169083151502179055508173ffffffffffffffffffffffffffffffffffffffff167f7a02eb9b107b2ab713e88c3cd7ac538e5c21b689d0f1b1f22367578b28fc5d098260405161076091906109dd565b60405180910390a25050565b5f60028260405161077d9190610e24565b90815260200160405180910390205f9054906101000a900460ff169050919050565b5f6107a98261026f565b9050919050565b5f8060015f8473ffffffffffffffffffffffffffffffffffffffff1673ffffffffffffffffffffffffffffffffffffffff1681526020019081526020015f205f0180546107fc90610ecf565b9050119050919050565b5f8054906101000a900473ffffffffffffffffffffffffffffffffffffffff1681565b6002818051602081018201805184825260208301602085012081835280955050505050505f915054906101000a900460ff1681565b606060015f8373ffffffffffffffffffffffffffffffffffffffff1673ffffffffffffffffffffffffffffffffffffffff1681526020019081526020015f205f0180546108aa90610ecf565b80601f01602080910402602001604051908101604052809291908181526020018280546108d690610ecf565b80156109215780601f106108f857610100808354040283529160200191610921565b820191905f5260205f20905b81548152906001019060200180831161090457829003601f168201915b50505050509050919050565b5f604051905090565b5f80fd5b5f80fd5b5f73ffffffffffffffffffffffffffffffffffffffff82169050919050565b5f6109678261093e565b9050919050565b6109778161095d565b8114610981575f80fd5b50565b5f813590506109928161096e565b92915050565b5f602082840312156109ad576109ac610936565b5b5f6109ba84828501610984565b91505092915050565b5f8115159050919050565b6109d7816109c3565b82525050565b5f6020820190506109f05f8301846109ce565b92915050565b5f80fd5b5f80fd5b5f601f19601f8301169050919050565b7f4e487b71000000000000000000000000000000000000000000000000000000005f52604160045260245ffd5b610a44826109fe565b810181811067ffffffffffffffff82111715610a6357610a62610a0e565b5b80604052505050565b5f610a7561092d565b9050610a818282610a3b565b919050565b5f67ffffffffffffffff821115610aa057610a9f610a0e565b5b610aa9826109fe565b9050602081019050919050565b828183375f83830152505050565b5f610ad6610ad184610a86565b610a6c565b905082815260208101848484011115610af257610af16109fa565b5b610afd848285610ab6565b509392505050565b5f82601f830112610b1957610b186109f6565b5b8135610b29848260208601610ac4565b91505092915050565b5f8060408385031215610b4857610b47610936565b5b5f83013567ffffffffffffffff811115610b6557610b6461093a565b5b610b7185828601610b05565b925050602083013567ffffffffffffffff811115610b9257610b9161093a565b5b610b9e85828601610b05565b9150509250929050565b5f81519050919050565b5f82825260208201905092915050565b5f5b83811015610bdf578082015181840152602081019050610bc4565b5f8484015250505050565b5f610bf482610ba8565b610bfe8185610bb2565b9350610c0e818560208601610bc2565b610c17816109fe565b840191505092915050565b5f819050919050565b610c3481610c22565b82525050565b5f6080820190508181035f830152610c528187610bea565b90508181036020830152610c668186610bea565b9050610c7560408301856109ce565b610c826060830184610c2b565b95945050505050565b5f60208284031215610ca057610c9f610936565b5b5f82013567ffffffffffffffff811115610cbd57610cbc61093a565b5b610cc984828501610b05565b91505092915050565b610cdb816109c3565b8114610ce5575f80fd5b50565b5f81359050610cf681610cd2565b92915050565b5f8060408385031215610d1257610d11610936565b5b5f610d1f85828601610984565b9250506020610d3085828601610ce8565b9150509250929050565b610d438161095d565b82525050565b5f602082019050610d5c5f830184610d3a565b92915050565b5f6020820190508181035f830152610d7a8184610bea565b905092915050565b7f446f63756d656e7420686173682063616e6e6f7420626520656d7074790000005f82015250565b5f610db6601d83610bb2565b9150610dc182610d82565b602082019050919050565b5f6020820190508181035f830152610de381610daa565b9050919050565b5f81905092915050565b5f610dfe82610ba8565b610e088185610dea565b9350610e18818560208601610bc2565b80840191505092915050565b5f610e2f8284610df4565b915081905092915050565b7f446f63756d656e74206861736820616c726561647920757365640000000000005f82015250565b5f610e6e601a83610bb2565b9150610e7982610e3a565b602082019050919050565b5f6020820190508181035f830152610e9b81610e62565b9050919050565b7f4e487b71000000000000000000000000000000000000000000000000000000005f52602260045260245ffd5b5f6002820490506001821680610ee657607f821691505b602082108103610ef957610ef8610ea2565b5b50919050565b5f819050815f5260205f209050919050565b5f6020601f8301049050919050565b5f82821b905092915050565b5f60088302610f5b7fffffffffffffffffffffffffffffffffffffffffffffffffffffffffffffffff82610f20565b610f658683610f20565b95508019841693508086168417925050509392505050565b5f819050919050565b5f610fa0610f9b610f9684610c22565b610f7d565b610c22565b9050919050565b5f819050919050565b610fb983610f86565b610fcd610fc582610fa7565b848454610f2c565b825550505050565b5f90565b610fe1610fd5565b610fec818484610fb0565b505050565b5b8181101561100f576110045f82610fd9565b600181019050610ff2565b5050565b601f8211156110545761102581610eff565b61102e84610f11565b8101602085101561103d578190505b61105161104985610f11565b830182610ff1565b50505b505050565b5f82821c905092915050565b5f6110745f1984600802611059565b1980831691505092915050565b5f61108c8383611065565b9150826002028217905092915050565b6110a582610ba8565b67ffffffffffffffff8111156110be576110bd610a0e565b5b6110c88254610ecf565b6110d3828285611013565b5f60209050601f831160018114611104575f84156110f2578287015190505b6110fc8582611081565b865550611163565b601f19841661111286610eff565b5f5b8281101561113957848901518255600182019150602085019450602081019050611114565b868310156111565784890151611152601f891682611065565b8355505b6001600288020188555050505b505050505050565b7f4e6f204b594320646f63756d656e7420666f756e6420666f72207573657200005f82015250565b5f61119f601e83610bb2565b91506111aa8261116b565b602082019050919050565b5f6020820190508181035f8301526111cc81611193565b905091905056fea2646970667358221220b537f4c9a8c2092271aef4aba3fee1c1b6185f0b4faecac2311e542d19f75d3f64736f6c63430008150033",
  "immutableReferences": {},
  "source": "\r\n// SPDX-License-Identifier: MIT\r\npragma solidity ^0.8.0;\r\n\r\n/**\r\n * @title KYCVerifier\r\n * @dev Manages KYC document submissions and verification\r\n */\r\ncontract KYCVerifier {\r\n    address public owner;\r\n    \r\n    struct KYCDocument {\r\n        string documentHash;\r\n        string documentType;\r\n        bool isVerified;\r\n        uint256 timestamp;\r\n    }\r\n    \r\n    // Mapping from user address to their KYC document\r\n    mapping(address => KYCDocument) public kycDocuments;\r\n    // Check if a document hash has been used before\r\n    mapping(string => bool) public usedDocumentHashes;\r\n    \r\n    // Events\r\n    event KYCSubmitted(address indexed user, string documentHash);\r\n    event KYCVerified(address indexed user, bool status);\r\n    \r\n    constructor() {\r\n        owner = msg.sender;\r\n    }\r\n    \r\n    modifier onlyOwner() {\r\n        require(msg.sender == owner, \"Only owner can call this function\");\r\n        _;\r\n    }\r\n    \r\n    /**\r\n     * @dev Submits a KYC document hash\r\n     * @param documentHash The hash of the document\r\n     */\r\n    function submitKYC(string memory documentHash) public {\r\n        submitKYC(documentHash, \"generic\");\r\n    }\r\n    \r\n    /**\r\n     * @dev Submits a KYC document hash with type\r\n     * @param documentHash The hash of the document\r\n     * @param documentType The type of document (e.g., \"passport\", \"drivers_license\")\r\n     */\r\n    function submitKYC(string memory documentHash, string memory documentType) public {\r\n        require(bytes(documentHash).length > 0, \"Document hash cannot be empty\");\r\n        require(!usedDocumentHashes[documentHash], \"Document hash already used\");\r\n        \r\n        kycDocuments[msg.sender] = KYCDocument({\r\n            documentHash: documentHash,\r\n            documentType: documentType,\r\n            isVerified: false,\r\n            timestamp: block.timestamp\r\n        });\r\n        \r\n        usedDocumentHashes[documentHash] = true;\r\n        \r\n        emit KYCSubmitted(msg.sender, documentHash);\r\n    }\r\n    \r\n    /**\r\n     * @dev Verifies a user's KYC document\r\n     * @param user The address of the user\r\n     * @param status The verification status (true = verified, false = rejected)\r\n     */\r\n    function verifyKYC(address user, bool status) public {\r\n        require(bytes(kycDocuments[user].documentHash).length > 0, \"No KYC document found for user\");\r\n        \r\n        kycDocuments[user].isVerified = status;\r\n        \r\n        emit KYCVerified(user, status);\r\n    }\r\n    \r\n    /**\r\n     * @dev Checks if a user's KYC is verified\r\n     * @param user The address of the user\r\n     * @return The verification status\r\n     */\r\n    function getKYCStatus(address user) public view returns (bool) {\r\n        return kycDocuments[user].isVerified;\r\n    }\r\n    \r\n    /**\r\n     * @dev Gets the document hash for a user\r\n     * @param user The address of the user\r\n     * @return The document hash\r\n     */\r\n    function getDocumentHash(address user) public view returns (string memory) {\r\n        return kycDocuments[user].documentHash;\r\n    }\r\n    \r\n    /**\r\n     * @dev Checks if a document hash has been used\r\n     * @param documentHash The hash to check\r\n     * @return Whether the hash is already used\r\n     */\r\n    function isDocumentHashUsed(string memory documentHash) public view returns (bool) {\r\n        return usedDocumentHashes[documentHash];\r\n    }\r\n    \r\n    /**\r\n     * @dev Checks if a user has submitted KYC documents\r\n     * @param user The address of the user\r\n     * @return Whether the user has submitted documents\r\n     */\r\n    function isKYCSubmitted(address user) public view returns (bool) {\r\n        return bytes(kycDocuments[user].documentHash).length > 0;\r\n    }\r\n    \r\n    /**\r\n     * @dev For compatibility with your frontend - same as getKYCStatus\r\n     */\r\n    function isKYCVerified(address user) public view returns (bool) {\r\n        return getKYCStatus(user);\r\n    }\r\n}",
  "sourcePath": "C:\\Users\\aaa\\Downloads\\trustbond\\contracts\\KYCVerifier.sol",
  "compiler": {
    "name": "solc",
    "version": "0.8.21+commit.d9974bed.Emscripten.clang"
  },
  "schemaVersion": "3.4.16",
  "updatedAt": "2025-04-23T14:00:38.391Z",
  "networkType": "ethereum",
  "devdoc": {
    "details": "Manages KYC document submissions and verification",
    "kind": "dev",
    "methods": {
      "getDocumentHash(address)": {
        "details": "Gets the document hash for a user",
        "params": {
          "user": "The address of the user"
        },
        "returns": {
          "_0": "The document hash"
        }
      },
      "getKYCStatus(address)": {
        "details": "Checks if a user's KYC is verified",
        "params": {
          "user": "The address of the user"
        },
        "returns": {
          "_0": "The verification status"
        }
      },
      "isDocumentHashUsed(string)": {
        "details": "Checks if a document hash has been used",
        "params": {
          "documentHash": "The hash to check"
        },
        "returns": {
          "_0": "Whether the hash is already used"
        }
      },
      "isKYCSubmitted(address)": {
        "details": "Checks if a user has submitted KYC documents",
        "params": {
          "user": "The address of the user"
        },
        "returns": {
          "_0": "Whether the user has submitted documents"
        }
      },
      "isKYCVerified(address)": {
        "details": "For compatibility with your frontend - same as getKYCStatus"
      },
      "submitKYC(string)": {
        "details": "Submits a KYC document hash",
        "params": {
          "documentHash": "The hash of the document"
        }
      },
      "submitKYC(string,string)": {
        "details": "Submits a KYC document hash with type",
        "params": {
          "documentHash": "The hash of the document",
          "documentType": "The type of document (e.g., \"passport\", \"drivers_license\")"
        }
      },
      "verifyKYC(address,bool)": {
        "details": "Verifies a user's KYC document",
        "params": {
          "status": "The verification status (true = verified, false = rejected)",
          "user": "The address of the user"
        }
      }
    },
    "title": "KYCVerifier",
    "version": 1
  },
  "userdoc": {
    "kind": "user",
    "methods": {},
    "version": 1
  }
}