{
  "contractName": "LoanManager",
  "abi": [
    {
      "inputs": [
        {
          "internalType": "address",
          "name": "_trustScoreAddress",
          "type": "address"
        },
        {
          "internalType": "address",
          "name": "_kycVerifierAddress",
          "type": "address"
        }
      ],
      "stateMutability": "nonpayable",
      "type": "constructor"
    },
    {
      "anonymous": false,
      "inputs": [
        {
          "indexed": true,
          "internalType": "uint256",
          "name": "loanId",
          "type": "uint256"
        },
        {
          "indexed": false,
          "internalType": "enum LoanManager.LoanStatus",
          "name": "status",
          "type": "uint8"
        },
        {
          "indexed": true,
          "internalType": "address",
          "name": "processor",
          "type": "address"
        }
      ],
      "name": "LoanProcessed",
      "type": "event"
    },
    {
      "anonymous": false,
      "inputs": [
        {
          "indexed": true,
          "internalType": "uint256",
          "name": "loanId",
          "type": "uint256"
        },
        {
          "indexed": false,
          "internalType": "uint256",
          "name": "amount",
          "type": "uint256"
        }
      ],
      "name": "LoanRepaid",
      "type": "event"
    },
    {
      "anonymous": false,
      "inputs": [
        {
          "indexed": true,
          "internalType": "address",
          "name": "borrower",
          "type": "address"
        },
        {
          "indexed": true,
          "internalType": "uint256",
          "name": "loanId",
          "type": "uint256"
        },
        {
          "indexed": false,
          "internalType": "uint256",
          "name": "amount",
          "type": "uint256"
        }
      ],
      "name": "LoanRequested",
      "type": "event"
    },
    {
      "inputs": [],
      "name": "kycVerifierAddress",
      "outputs": [
        {
          "internalType": "address",
          "name": "",
          "type": "address"
        }
      ],
      "stateMutability": "view",
      "type": "function",
      "constant": true
    },
    {
      "inputs": [],
      "name": "loanCounter",
      "outputs": [
        {
          "internalType": "uint256",
          "name": "",
          "type": "uint256"
        }
      ],
      "stateMutability": "view",
      "type": "function",
      "constant": true
    },
    {
      "inputs": [
        {
          "internalType": "uint256",
          "name": "",
          "type": "uint256"
        }
      ],
      "name": "loans",
      "outputs": [
        {
          "internalType": "uint256",
          "name": "id",
          "type": "uint256"
        },
        {
          "internalType": "address",
          "name": "borrower",
          "type": "address"
        },
        {
          "internalType": "address",
          "name": "lender",
          "type": "address"
        },
        {
          "internalType": "uint256",
          "name": "amount",
          "type": "uint256"
        },
        {
          "internalType": "uint256",
          "name": "duration",
          "type": "uint256"
        },
        {
          "internalType": "uint256",
          "name": "interestRate",
          "type": "uint256"
        },
        {
          "internalType": "uint256",
          "name": "timestamp",
          "type": "uint256"
        },
        {
          "internalType": "enum LoanManager.LoanStatus",
          "name": "status",
          "type": "uint8"
        },
        {
          "internalType": "string",
          "name": "description",
          "type": "string"
        }
      ],
      "stateMutability": "view",
      "type": "function",
      "constant": true
    },
    {
      "inputs": [],
      "name": "owner",
      "outputs": [
        {
          "internalType": "address",
          "name": "",
          "type": "address"
        }
      ],
      "stateMutability": "view",
      "type": "function",
      "constant": true
    },
    {
      "inputs": [],
      "name": "trustScoreAddress",
      "outputs": [
        {
          "internalType": "address",
          "name": "",
          "type": "address"
        }
      ],
      "stateMutability": "view",
      "type": "function",
      "constant": true
    },
    {
      "inputs": [
        {
          "internalType": "address",
          "name": "",
          "type": "address"
        },
        {
          "internalType": "uint256",
          "name": "",
          "type": "uint256"
        }
      ],
      "name": "userLoans",
      "outputs": [
        {
          "internalType": "uint256",
          "name": "",
          "type": "uint256"
        }
      ],
      "stateMutability": "view",
      "type": "function",
      "constant": true
    },
    {
      "inputs": [
        {
          "internalType": "uint256",
          "name": "amount",
          "type": "uint256"
        },
        {
          "internalType": "uint256",
          "name": "duration",
          "type": "uint256"
        },
        {
          "internalType": "string",
          "name": "description",
          "type": "string"
        }
      ],
      "name": "requestLoan",
      "outputs": [
        {
          "internalType": "uint256",
          "name": "",
          "type": "uint256"
        }
      ],
      "stateMutability": "nonpayable",
      "type": "function"
    },
    {
      "inputs": [
        {
          "internalType": "uint256",
          "name": "loanId",
          "type": "uint256"
        }
      ],
      "name": "approveLoan",
      "outputs": [],
      "stateMutability": "nonpayable",
      "type": "function"
    },
    {
      "inputs": [
        {
          "internalType": "uint256",
          "name": "loanId",
          "type": "uint256"
        }
      ],
      "name": "rejectLoan",
      "outputs": [],
      "stateMutability": "nonpayable",
      "type": "function"
    },
    {
      "inputs": [
        {
          "internalType": "uint256",
          "name": "loanId",
          "type": "uint256"
        }
      ],
      "name": "repayLoan",
      "outputs": [],
      "stateMutability": "payable",
      "type": "function",
      "payable": true
    },
    {
      "inputs": [
        {
          "internalType": "address",
          "name": "user",
          "type": "address"
        }
      ],
      "name": "getUserLoans",
      "outputs": [
        {
          "internalType": "uint256[]",
          "name": "",
          "type": "uint256[]"
        }
      ],
      "stateMutability": "view",
      "type": "function",
      "constant": true
    },
    {
      "inputs": [
        {
          "internalType": "uint256",
          "name": "loanId",
          "type": "uint256"
        }
      ],
      "name": "getLoan",
      "outputs": [
        {
          "components": [
            {
              "internalType": "uint256",
              "name": "id",
              "type": "uint256"
            },
            {
              "internalType": "address",
              "name": "borrower",
              "type": "address"
            },
            {
              "internalType": "address",
              "name": "lender",
              "type": "address"
            },
            {
              "internalType": "uint256",
              "name": "amount",
              "type": "uint256"
            },
            {
              "internalType": "uint256",
              "name": "duration",
              "type": "uint256"
            },
            {
              "internalType": "uint256",
              "name": "interestRate",
              "type": "uint256"
            },
            {
              "internalType": "uint256",
              "name": "timestamp",
              "type": "uint256"
            },
            {
              "internalType": "enum LoanManager.LoanStatus",
              "name": "status",
              "type": "uint8"
            },
            {
              "internalType": "string",
              "name": "description",
              "type": "string"
            }
          ],
          "internalType": "struct LoanManager.Loan",
          "name": "",
          "type": "tuple"
        }
      ],
      "stateMutability": "view",
      "type": "function",
      "constant": true
    },
    {
      "inputs": [],
      "name": "getAllLoans",
      "outputs": [
        {
          "components": [
            {
              "internalType": "uint256",
              "name": "id",
              "type": "uint256"
            },
            {
              "internalType": "address",
              "name": "borrower",
              "type": "address"
            },
            {
              "internalType": "address",
              "name": "lender",
              "type": "address"
            },
            {
              "internalType": "uint256",
              "name": "amount",
              "type": "uint256"
            },
            {
              "internalType": "uint256",
              "name": "duration",
              "type": "uint256"
            },
            {
              "internalType": "uint256",
              "name": "interestRate",
              "type": "uint256"
            },
            {
              "internalType": "uint256",
              "name": "timestamp",
              "type": "uint256"
            },
            {
              "internalType": "enum LoanManager.LoanStatus",
              "name": "status",
              "type": "uint8"
            },
            {
              "internalType": "string",
              "name": "description",
              "type": "string"
            }
          ],
          "internalType": "struct LoanManager.Loan[]",
          "name": "",
          "type": "tuple[]"
        }
      ],
      "stateMutability": "view",
      "type": "function",
      "constant": true
    }
  ],
  "bytecode": "0x608060405234801562000010575f80fd5b50604051620023d7380380620023d7833981810160405281019062000036919062000169565b335f806101000a81548173ffffffffffffffffffffffffffffffffffffffff021916908373ffffffffffffffffffffffffffffffffffffffff1602179055508160015f6101000a81548173ffffffffffffffffffffffffffffffffffffffff021916908373ffffffffffffffffffffffffffffffffffffffff1602179055508060025f6101000a81548173ffffffffffffffffffffffffffffffffffffffff021916908373ffffffffffffffffffffffffffffffffffffffff1602179055505f6004819055505050620001ae565b5f80fd5b5f73ffffffffffffffffffffffffffffffffffffffff82169050919050565b5f620001338262000108565b9050919050565b620001458162000127565b811462000150575f80fd5b50565b5f8151905062000163816200013a565b92915050565b5f806040838503121562000182576200018162000104565b5b5f620001918582860162000153565b9250506020620001a48582860162000153565b9150509250929050565b61221b80620001bc5f395ff3fe6080604052600436106100c1575f3560e01c8063a5bfd16a1161007e578063c9fb5f2311610058578063c9fb5f2314610251578063d3602dc61461027b578063d8bad5bd146102b7578063e1ec3c68146102f3576100c1565b8063a5bfd16a146101e3578063aadc1ac11461020d578063ab7b1c8914610235576100c1565b806302bf321f146100c557806309dbd2fb1461010157806334d9289e1461012b578063504006ca146101555780635d29cb98146101915780638da5cb5b146101b9575b5f80fd5b3480156100d0575f80fd5b506100eb60048036038101906100e6919061131e565b610337565b6040516100f89190611409565b60405180910390f35b34801561010c575f80fd5b506101156103ca565b6040516101229190611438565b60405180910390f35b348015610136575f80fd5b5061013f6103ef565b60405161014c9190611460565b60405180910390f35b348015610160575f80fd5b5061017b600480360381019061017691906114a3565b6103f5565b604051610188919061169c565b60405180910390f35b34801561019c575f80fd5b506101b760048036038101906101b291906114a3565b6105c6565b005b3480156101c4575f80fd5b506101cd6106db565b6040516101da9190611438565b60405180910390f35b3480156101ee575f80fd5b506101f76106fe565b6040516102049190611839565b60405180910390f35b348015610218575f80fd5b50610233600480360381019061022e91906114a3565b610960565b005b61024f600480360381019061024a91906114a3565b610b68565b005b34801561025c575f80fd5b50610265610dd9565b6040516102729190611438565b60405180910390f35b348015610286575f80fd5b506102a1600480360381019061029c9190611985565b610dfe565b6040516102ae9190611460565b60405180910390f35b3480156102c2575f80fd5b506102dd60048036038101906102d891906119f1565b6110ec565b6040516102ea9190611460565b60405180910390f35b3480156102fe575f80fd5b50610319600480360381019061031491906114a3565b611117565b60405161032e99989796959493929190611a86565b60405180910390f35b606060055f8373ffffffffffffffffffffffffffffffffffffffff1673ffffffffffffffffffffffffffffffffffffffff1681526020019081526020015f208054806020026020016040519081016040528092919081815260200182805480156103be57602002820191905f5260205f20905b8154815260200190600101908083116103aa575b50505050509050919050565b60015f9054906101000a900473ffffffffffffffffffffffffffffffffffffffff1681565b60045481565b6103fd611231565b60035f8381526020019081526020015f20604051806101200160405290815f8201548152602001600182015f9054906101000a900473ffffffffffffffffffffffffffffffffffffffff1673ffffffffffffffffffffffffffffffffffffffff1673ffffffffffffffffffffffffffffffffffffffff168152602001600282015f9054906101000a900473ffffffffffffffffffffffffffffffffffffffff1673ffffffffffffffffffffffffffffffffffffffff1673ffffffffffffffffffffffffffffffffffffffff16815260200160038201548152602001600482015481526020016005820154815260200160068201548152602001600782015f9054906101000a900460ff166004811115610519576105186114dd565b5b600481111561052b5761052a6114dd565b5b815260200160088201805461053f90611b45565b80601f016020809104026020016040519081016040528092919081815260200182805461056b90611b45565b80156105b65780601f1061058d576101008083540402835291602001916105b6565b820191905f5260205f20905b81548152906001019060200180831161059957829003601f168201915b5050505050815250509050919050565b5f60048111156105d9576105d86114dd565b5b60035f8381526020019081526020015f206007015f9054906101000a900460ff16600481111561060c5761060b6114dd565b5b1461064c576040517f08c379a000000000000000000000000000000000000000000000000000000000815260040161064390611bbf565b60405180910390fd5b600260035f8381526020019081526020015f206007015f6101000a81548160ff02191690836004811115610683576106826114dd565b5b02179055503373ffffffffffffffffffffffffffffffffffffffff16817fbbd699feb306d6b5692c8c662e36485f37b6844645c6ad2e6541524117f08baf60026040516106d09190611bdd565b60405180910390a350565b5f8054906101000a900473ffffffffffffffffffffffffffffffffffffffff1681565b60605f60045467ffffffffffffffff81111561071d5761071c611861565b5b60405190808252806020026020018201604052801561075657816020015b610743611231565b81526020019060019003908161073b5790505b5090505f5b6004548110156109585760035f8281526020019081526020015f20604051806101200160405290815f8201548152602001600182015f9054906101000a900473ffffffffffffffffffffffffffffffffffffffff1673ffffffffffffffffffffffffffffffffffffffff1673ffffffffffffffffffffffffffffffffffffffff168152602001600282015f9054906101000a900473ffffffffffffffffffffffffffffffffffffffff1673ffffffffffffffffffffffffffffffffffffffff1673ffffffffffffffffffffffffffffffffffffffff16815260200160038201548152602001600482015481526020016005820154815260200160068201548152602001600782015f9054906101000a900460ff166004811115610881576108806114dd565b5b6004811115610893576108926114dd565b5b81526020016008820180546108a790611b45565b80601f01602080910402602001604051908101604052809291908181526020018280546108d390611b45565b801561091e5780601f106108f55761010080835404028352916020019161091e565b820191905f5260205f20905b81548152906001019060200180831161090157829003601f168201915b50505050508152505082828151811061093a57610939611bf6565b5b6020026020010181905250808061095090611c50565b91505061075b565b508091505090565b5f6004811115610973576109726114dd565b5b60035f8381526020019081526020015f206007015f9054906101000a900460ff1660048111156109a6576109a56114dd565b5b146109e6576040517f08c379a00000000000000000000000000000000000000000000000000000000081526004016109dd90611bbf565b60405180910390fd5b3373ffffffffffffffffffffffffffffffffffffffff1660035f8381526020019081526020015f206001015f9054906101000a900473ffffffffffffffffffffffffffffffffffffffff1673ffffffffffffffffffffffffffffffffffffffff1603610a87576040517f08c379a0000000000000000000000000000000000000000000000000000000008152600401610a7e90611ce1565b60405180910390fd5b3360035f8381526020019081526020015f206002015f6101000a81548173ffffffffffffffffffffffffffffffffffffffff021916908373ffffffffffffffffffffffffffffffffffffffff160217905550600160035f8381526020019081526020015f206007015f6101000a81548160ff02191690836004811115610b1057610b0f6114dd565b5b02179055503373ffffffffffffffffffffffffffffffffffffffff16817fbbd699feb306d6b5692c8c662e36485f37b6844645c6ad2e6541524117f08baf6001604051610b5d9190611bdd565b60405180910390a350565b60016004811115610b7c57610b7b6114dd565b5b60035f8381526020019081526020015f206007015f9054906101000a900460ff166004811115610baf57610bae6114dd565b5b14610bef576040517f08c379a0000000000000000000000000000000000000000000000000000000008152600401610be690611d49565b60405180910390fd5b3373ffffffffffffffffffffffffffffffffffffffff1660035f8381526020019081526020015f206001015f9054906101000a900473ffffffffffffffffffffffffffffffffffffffff1673ffffffffffffffffffffffffffffffffffffffff1614610c90576040517f08c379a0000000000000000000000000000000000000000000000000000000008152600401610c8790611db1565b60405180910390fd5b60035f8281526020019081526020015f2060030154341015610ce7576040517f08c379a0000000000000000000000000000000000000000000000000000000008152600401610cde90611e3f565b60405180910390fd5b5f60035f8381526020019081526020015f206002015f9054906101000a900473ffffffffffffffffffffffffffffffffffffffff1690508073ffffffffffffffffffffffffffffffffffffffff166108fc3490811502906040515f60405180830381858888f19350505050158015610d61573d5f803e3d5ffd5b506003805f8481526020019081526020015f206007015f6101000a81548160ff02191690836004811115610d9857610d976114dd565b5b0217905550817f040cee90ee4799897c30ca04e5feb6fa43dbba9b6d084b4b257cdafd84ba013e34604051610dcd9190611460565b60405180910390a25050565b60025f9054906101000a900473ffffffffffffffffffffffffffffffffffffffff1681565b5f808411610e41576040517f08c379a0000000000000000000000000000000000000000000000000000000008152600401610e3890611ecd565b60405180910390fd5b5f8311610e83576040517f08c379a0000000000000000000000000000000000000000000000000000000008152600401610e7a90611f5b565b60405180910390fd5b5f60045f815480929190610e9690611c50565b9190505590506040518061012001604052808281526020013373ffffffffffffffffffffffffffffffffffffffff1681526020015f73ffffffffffffffffffffffffffffffffffffffff168152602001868152602001858152602001600581526020014281526020015f6004811115610f1257610f116114dd565b5b81526020018481525060035f8381526020019081526020015f205f820151815f01556020820151816001015f6101000a81548173ffffffffffffffffffffffffffffffffffffffff021916908373ffffffffffffffffffffffffffffffffffffffff1602179055506040820151816002015f6101000a81548173ffffffffffffffffffffffffffffffffffffffff021916908373ffffffffffffffffffffffffffffffffffffffff160217905550606082015181600301556080820151816004015560a0820151816005015560c0820151816006015560e0820151816007015f6101000a81548160ff02191690836004811115611012576110116114dd565b5b021790555061010082015181600801908161102d9190612116565b5090505060055f3373ffffffffffffffffffffffffffffffffffffffff1673ffffffffffffffffffffffffffffffffffffffff1681526020019081526020015f2081908060018154018082558091505060019003905f5260205f20015f9091909190915055803373ffffffffffffffffffffffffffffffffffffffff167f7468760830aff5679376e50470c0493d21c88c599388e89b08c9512b3f3fbc7d876040516110d99190611460565b60405180910390a3809150509392505050565b6005602052815f5260405f208181548110611105575f80fd5b905f5260205f20015f91509150505481565b6003602052805f5260405f205f91509050805f015490806001015f9054906101000a900473ffffffffffffffffffffffffffffffffffffffff1690806002015f9054906101000a900473ffffffffffffffffffffffffffffffffffffffff1690806003015490806004015490806005015490806006015490806007015f9054906101000a900460ff16908060080180546111b090611b45565b80601f01602080910402602001604051908101604052809291908181526020018280546111dc90611b45565b80156112275780601f106111fe57610100808354040283529160200191611227565b820191905f5260205f20905b81548152906001019060200180831161120a57829003601f168201915b5050505050905089565b6040518061012001604052805f81526020015f73ffffffffffffffffffffffffffffffffffffffff1681526020015f73ffffffffffffffffffffffffffffffffffffffff1681526020015f81526020015f81526020015f81526020015f81526020015f60048111156112a6576112a56114dd565b5b8152602001606081525090565b5f604051905090565b5f80fd5b5f80fd5b5f73ffffffffffffffffffffffffffffffffffffffff82169050919050565b5f6112ed826112c4565b9050919050565b6112fd816112e3565b8114611307575f80fd5b50565b5f81359050611318816112f4565b92915050565b5f60208284031215611333576113326112bc565b5b5f6113408482850161130a565b91505092915050565b5f81519050919050565b5f82825260208201905092915050565b5f819050602082019050919050565b5f819050919050565b61138481611372565b82525050565b5f611395838361137b565b60208301905092915050565b5f602082019050919050565b5f6113b782611349565b6113c18185611353565b93506113cc83611363565b805f5b838110156113fc5781516113e3888261138a565b97506113ee836113a1565b9250506001810190506113cf565b5085935050505092915050565b5f6020820190508181035f83015261142181846113ad565b905092915050565b611432816112e3565b82525050565b5f60208201905061144b5f830184611429565b92915050565b61145a81611372565b82525050565b5f6020820190506114735f830184611451565b92915050565b61148281611372565b811461148c575f80fd5b50565b5f8135905061149d81611479565b92915050565b5f602082840312156114b8576114b76112bc565b5b5f6114c58482850161148f565b91505092915050565b6114d7816112e3565b82525050565b7f4e487b71000000000000000000000000000000000000000000000000000000005f52602160045260245ffd5b6005811061151b5761151a6114dd565b5b50565b5f81905061152b8261150a565b919050565b5f61153a8261151e565b9050919050565b61154a81611530565b82525050565b5f81519050919050565b5f82825260208201905092915050565b5f5b8381101561158757808201518184015260208101905061156c565b5f8484015250505050565b5f601f19601f8301169050919050565b5f6115ac82611550565b6115b6818561155a565b93506115c681856020860161156a565b6115cf81611592565b840191505092915050565b5f61012083015f8301516115f05f86018261137b565b50602083015161160360208601826114ce565b50604083015161161660408601826114ce565b506060830151611629606086018261137b565b50608083015161163c608086018261137b565b5060a083015161164f60a086018261137b565b5060c083015161166260c086018261137b565b5060e083015161167560e0860182611541565b5061010083015184820361010086015261168f82826115a2565b9150508091505092915050565b5f6020820190508181035f8301526116b481846115da565b905092915050565b5f81519050919050565b5f82825260208201905092915050565b5f819050602082019050919050565b5f61012083015f8301516116fb5f86018261137b565b50602083015161170e60208601826114ce565b50604083015161172160408601826114ce565b506060830151611734606086018261137b565b506080830151611747608086018261137b565b5060a083015161175a60a086018261137b565b5060c083015161176d60c086018261137b565b5060e083015161178060e0860182611541565b5061010083015184820361010086015261179a82826115a2565b9150508091505092915050565b5f6117b283836116e5565b905092915050565b5f602082019050919050565b5f6117d0826116bc565b6117da81856116c6565b9350836020820285016117ec856116d6565b805f5b85811015611827578484038952815161180885826117a7565b9450611813836117ba565b925060208a019950506001810190506117ef565b50829750879550505050505092915050565b5f6020820190508181035f83015261185181846117c6565b905092915050565b5f80fd5b5f80fd5b7f4e487b71000000000000000000000000000000000000000000000000000000005f52604160045260245ffd5b61189782611592565b810181811067ffffffffffffffff821117156118b6576118b5611861565b5b80604052505050565b5f6118c86112b3565b90506118d4828261188e565b919050565b5f67ffffffffffffffff8211156118f3576118f2611861565b5b6118fc82611592565b9050602081019050919050565b828183375f83830152505050565b5f611929611924846118d9565b6118bf565b9050828152602081018484840111156119455761194461185d565b5b611950848285611909565b509392505050565b5f82601f83011261196c5761196b611859565b5b813561197c848260208601611917565b91505092915050565b5f805f6060848603121561199c5761199b6112bc565b5b5f6119a98682870161148f565b93505060206119ba8682870161148f565b925050604084013567ffffffffffffffff8111156119db576119da6112c0565b5b6119e786828701611958565b9150509250925092565b5f8060408385031215611a0757611a066112bc565b5b5f611a148582860161130a565b9250506020611a258582860161148f565b9150509250929050565b611a3881611530565b82525050565b5f82825260208201905092915050565b5f611a5882611550565b611a628185611a3e565b9350611a7281856020860161156a565b611a7b81611592565b840191505092915050565b5f61012082019050611a9a5f83018c611451565b611aa7602083018b611429565b611ab4604083018a611429565b611ac16060830189611451565b611ace6080830188611451565b611adb60a0830187611451565b611ae860c0830186611451565b611af560e0830185611a2f565b818103610100830152611b088184611a4e565b90509a9950505050505050505050565b7f4e487b71000000000000000000000000000000000000000000000000000000005f52602260045260245ffd5b5f6002820490506001821680611b5c57607f821691505b602082108103611b6f57611b6e611b18565b5b50919050565b7f4c6f616e206973206e6f742070656e64696e67000000000000000000000000005f82015250565b5f611ba9601383611a3e565b9150611bb482611b75565b602082019050919050565b5f6020820190508181035f830152611bd681611b9d565b9050919050565b5f602082019050611bf05f830184611a2f565b92915050565b7f4e487b71000000000000000000000000000000000000000000000000000000005f52603260045260245ffd5b7f4e487b71000000000000000000000000000000000000000000000000000000005f52601160045260245ffd5b5f611c5a82611372565b91507fffffffffffffffffffffffffffffffffffffffffffffffffffffffffffffffff8203611c8c57611c8b611c23565b5b600182019050919050565b7f43616e6e6f7420617070726f766520796f7572206f776e206c6f616e000000005f82015250565b5f611ccb601c83611a3e565b9150611cd682611c97565b602082019050919050565b5f6020820190508181035f830152611cf881611cbf565b9050919050565b7f4c6f616e206973206e6f7420617070726f7665640000000000000000000000005f82015250565b5f611d33601483611a3e565b9150611d3e82611cff565b602082019050919050565b5f6020820190508181035f830152611d6081611d27565b9050919050565b7f4f6e6c7920626f72726f7765722063616e207265706179206c6f616e000000005f82015250565b5f611d9b601c83611a3e565b9150611da682611d67565b602082019050919050565b5f6020820190508181035f830152611dc881611d8f565b9050919050565b7f496e73756666696369656e7420616d6f756e7420746f207265706179206c6f615f8201527f6e00000000000000000000000000000000000000000000000000000000000000602082015250565b5f611e29602183611a3e565b9150611e3482611dcf565b604082019050919050565b5f6020820190508181035f830152611e5681611e1d565b9050919050565b7f4c6f616e20616d6f756e74206d7573742062652067726561746572207468616e5f8201527f2030000000000000000000000000000000000000000000000000000000000000602082015250565b5f611eb7602283611a3e565b9150611ec282611e5d565b604082019050919050565b5f6020820190508181035f830152611ee481611eab565b9050919050565b7f4c6f616e206475726174696f6e206d75737420626520677265617465722074685f8201527f616e203000000000000000000000000000000000000000000000000000000000602082015250565b5f611f45602483611a3e565b9150611f5082611eeb565b604082019050919050565b5f6020820190508181035f830152611f7281611f39565b9050919050565b5f819050815f5260205f209050919050565b5f6020601f8301049050919050565b5f82821b905092915050565b5f60088302611fd57fffffffffffffffffffffffffffffffffffffffffffffffffffffffffffffffff82611f9a565b611fdf8683611f9a565b95508019841693508086168417925050509392505050565b5f819050919050565b5f61201a61201561201084611372565b611ff7565b611372565b9050919050565b5f819050919050565b61203383612000565b61204761203f82612021565b848454611fa6565b825550505050565b5f90565b61205b61204f565b61206681848461202a565b505050565b5b818110156120895761207e5f82612053565b60018101905061206c565b5050565b601f8211156120ce5761209f81611f79565b6120a884611f8b565b810160208510156120b7578190505b6120cb6120c385611f8b565b83018261206b565b50505b505050565b5f82821c905092915050565b5f6120ee5f19846008026120d3565b1980831691505092915050565b5f61210683836120df565b9150826002028217905092915050565b61211f82611550565b67ffffffffffffffff81111561213857612137611861565b5b6121428254611b45565b61214d82828561208d565b5f60209050601f83116001811461217e575f841561216c578287015190505b61217685826120fb565b8655506121dd565b601f19841661218c86611f79565b5f5b828110156121b35784890151825560018201915060208501945060208101905061218e565b868310156121d057848901516121cc601f8916826120df565b8355505b6001600288020188555050505b50505050505056fea26469706673582212202baf2e0d13daf041ac48fdad635eb549e2ea21cd7d7d5ab93703854f1662eb8664736f6c63430008150033",
  "immutableReferences": {},
  "source": "// SPDX-License-Identifier: MIT\r\npragma solidity ^0.8.0;\r\n\r\n/**\r\n * @title LoanManager\r\n * @dev Manages loan applications and approvals\r\n */\r\ncontract LoanManager {\r\n    address public owner;\r\n    address public trustScoreAddress;\r\n    address public kycVerifierAddress;\r\n    \r\n    // Loan status enum\r\n    enum LoanStatus { Pending, Approved, Rejected, Repaid, Defaulted }\r\n    \r\n    // Loan structure\r\n    struct Loan {\r\n        uint256 id;\r\n        address borrower;\r\n        address lender;\r\n        uint256 amount;\r\n        uint256 duration; // in days\r\n        uint256 interestRate;\r\n        uint256 timestamp;\r\n        LoanStatus status;\r\n        string description;\r\n    }\r\n    \r\n    // Mapping from loan ID to Loan\r\n    mapping(uint256 => Loan) public loans;\r\n    \r\n    // Counter for loan IDs\r\n    uint256 public loanCounter;\r\n    \r\n    // Mapping from user to their loans\r\n    mapping(address => uint256[]) public userLoans;\r\n    \r\n    // Events\r\n    event LoanRequested(address indexed borrower, uint256 indexed loanId, uint256 amount);\r\n    event LoanProcessed(uint256 indexed loanId, LoanStatus status, address indexed processor);\r\n    event LoanRepaid(uint256 indexed loanId, uint256 amount);\r\n    \r\n    constructor(address _trustScoreAddress, address _kycVerifierAddress) {\r\n        owner = msg.sender;\r\n        trustScoreAddress = _trustScoreAddress;\r\n        kycVerifierAddress = _kycVerifierAddress;\r\n        loanCounter = 0;\r\n    }\r\n    \r\n    /**\r\n     * @dev Requests a loan\r\n     * @param amount The loan amount\r\n     * @param duration The loan duration in days\r\n     * @param description The purpose of the loan\r\n     * @return The loan ID\r\n     */\r\n    function requestLoan(uint256 amount, uint256 duration, string memory description) public returns (uint256) {\r\n        require(amount > 0, \"Loan amount must be greater than 0\");\r\n        require(duration > 0, \"Loan duration must be greater than 0\");\r\n        \r\n        uint256 loanId = loanCounter++;\r\n        \r\n        loans[loanId] = Loan({\r\n            id: loanId,\r\n            borrower: msg.sender,\r\n            lender: address(0),\r\n            amount: amount,\r\n            duration: duration,\r\n            interestRate: 5, // Default interest rate, could be calculated based on trust score\r\n            timestamp: block.timestamp,\r\n            status: LoanStatus.Pending,\r\n            description: description\r\n        });\r\n        \r\n        userLoans[msg.sender].push(loanId);\r\n        \r\n        emit LoanRequested(msg.sender, loanId, amount);\r\n        \r\n        return loanId;\r\n    }\r\n    \r\n    /**\r\n     * @dev Approves a loan\r\n     * @param loanId The ID of the loan\r\n     */\r\n    function approveLoan(uint256 loanId) public {\r\n        require(loans[loanId].status == LoanStatus.Pending, \"Loan is not pending\");\r\n        require(loans[loanId].borrower != msg.sender, \"Cannot approve your own loan\");\r\n        \r\n        loans[loanId].lender = msg.sender;\r\n        loans[loanId].status = LoanStatus.Approved;\r\n        \r\n        emit LoanProcessed(loanId, LoanStatus.Approved, msg.sender);\r\n    }\r\n    \r\n    /**\r\n     * @dev Rejects a loan\r\n     * @param loanId The ID of the loan\r\n     */\r\n    function rejectLoan(uint256 loanId) public {\r\n        require(loans[loanId].status == LoanStatus.Pending, \"Loan is not pending\");\r\n        \r\n        loans[loanId].status = LoanStatus.Rejected;\r\n        \r\n        emit LoanProcessed(loanId, LoanStatus.Rejected, msg.sender);\r\n    }\r\n    \r\n    /**\r\n     * @dev Repays a loan\r\n     * @param loanId The ID of the loan\r\n     */\r\n    function repayLoan(uint256 loanId) public payable {\r\n        require(loans[loanId].status == LoanStatus.Approved, \"Loan is not approved\");\r\n        require(loans[loanId].borrower == msg.sender, \"Only borrower can repay loan\");\r\n        require(msg.value >= loans[loanId].amount, \"Insufficient amount to repay loan\");\r\n        \r\n        address payable lender = payable(loans[loanId].lender);\r\n        lender.transfer(msg.value);\r\n        \r\n        loans[loanId].status = LoanStatus.Repaid;\r\n        \r\n        emit LoanRepaid(loanId, msg.value);\r\n    }\r\n    \r\n    /**\r\n     * @dev Gets all loans for a user\r\n     * @param user The user address\r\n     * @return An array of loan IDs\r\n     */\r\n    function getUserLoans(address user) public view returns (uint256[] memory) {\r\n        return userLoans[user];\r\n    }\r\n    \r\n    /**\r\n     * @dev Gets a loan by ID\r\n     * @param loanId The loan ID\r\n     * @return The loan details\r\n     */\r\n    function getLoan(uint256 loanId) public view returns (Loan memory) {\r\n        return loans[loanId];\r\n    }\r\n    \r\n    /**\r\n     * @dev Gets all loans\r\n     * @return An array of all loans\r\n     */\r\n    function getAllLoans() public view returns (Loan[] memory) {\r\n        Loan[] memory allLoans = new Loan[](loanCounter);\r\n        \r\n        for (uint256 i = 0; i < loanCounter; i++) {\r\n            allLoans[i] = loans[i];\r\n        }\r\n        \r\n        return allLoans;\r\n    }\r\n}\r\n",
  "sourcePath": "C:\\Users\\aaa\\Downloads\\trustbond\\contracts\\LoanManager.sol",
  "compiler": {
    "name": "solc",
    "version": "0.8.21+commit.d9974bed.Emscripten.clang"
  },
  "schemaVersion": "3.4.16",
  "updatedAt": "2025-04-23T14:00:38.407Z",
  "networkType": "ethereum",
  "devdoc": {
    "details": "Manages loan applications and approvals",
    "kind": "dev",
    "methods": {
      "approveLoan(uint256)": {
        "details": "Approves a loan",
        "params": {
          "loanId": "The ID of the loan"
        }
      },
      "getAllLoans()": {
        "details": "Gets all loans",
        "returns": {
          "_0": "An array of all loans"
        }
      },
      "getLoan(uint256)": {
        "details": "Gets a loan by ID",
        "params": {
          "loanId": "The loan ID"
        },
        "returns": {
          "_0": "The loan details"
        }
      },
      "getUserLoans(address)": {
        "details": "Gets all loans for a user",
        "params": {
          "user": "The user address"
        },
        "returns": {
          "_0": "An array of loan IDs"
        }
      },
      "rejectLoan(uint256)": {
        "details": "Rejects a loan",
        "params": {
          "loanId": "The ID of the loan"
        }
      },
      "repayLoan(uint256)": {
        "details": "Repays a loan",
        "params": {
          "loanId": "The ID of the loan"
        }
      },
      "requestLoan(uint256,uint256,string)": {
        "details": "Requests a loan",
        "params": {
          "amount": "The loan amount",
          "description": "The purpose of the loan",
          "duration": "The loan duration in days"
        },
        "returns": {
          "_0": "The loan ID"
        }
      }
    },
    "title": "LoanManager",
    "version": 1
  },
  "userdoc": {
    "kind": "user",
    "methods": {},
    "version": 1
  }
}