{
  "contractName": "TrustScore",
  "abi": [
    {
      "inputs": [],
      "stateMutability": "nonpayable",
      "type": "constructor"
    },
    {
      "anonymous": false,
      "inputs": [
        {
          "indexed": true,
          "internalType": "address",
          "name": "user",
          "type": "address"
        },
        {
          "indexed": false,
          "internalType": "uint256",
          "name": "defaultCount",
          "type": "uint256"
        }
      ],
      "name": "DefaultAdded",
      "type": "event"
    },
    {
      "anonymous": false,
      "inputs": [
        {
          "indexed": true,
          "internalType": "address",
          "name": "user",
          "type": "address"
        },
        {
          "indexed": false,
          "internalType": "uint256",
          "name": "repaymentCount",
          "type": "uint256"
        }
      ],
      "name": "RepaymentAdded",
      "type": "event"
    },
    {
      "anonymous": false,
      "inputs": [
        {
          "indexed": true,
          "internalType": "address",
          "name": "user",
          "type": "address"
        },
        {
          "indexed": false,
          "internalType": "uint256",
          "name": "newScore",
          "type": "uint256"
        }
      ],
      "name": "ScoreUpdated",
      "type": "event"
    },
    {
      "anonymous": false,
      "inputs": [
        {
          "indexed": true,
          "internalType": "address",
          "name": "user",
          "type": "address"
        },
        {
          "indexed": false,
          "internalType": "uint256",
          "name": "transactionCount",
          "type": "uint256"
        }
      ],
      "name": "TransactionAdded",
      "type": "event"
    },
    {
      "inputs": [],
      "name": "BASE_SCORE",
      "outputs": [
        {
          "internalType": "uint256",
          "name": "",
          "type": "uint256"
        }
      ],
      "stateMutability": "view",
      "type": "function",
      "constant": true
    },
    {
      "inputs": [],
      "name": "owner",
      "outputs": [
        {
          "internalType": "address",
          "name": "",
          "type": "address"
        }
      ],
      "stateMutability": "view",
      "type": "function",
      "constant": true
    },
    {
      "inputs": [
        {
          "internalType": "address",
          "name": "",
          "type": "address"
        }
      ],
      "name": "userScores",
      "outputs": [
        {
          "internalType": "uint256",
          "name": "score",
          "type": "uint256"
        },
        {
          "internalType": "uint256",
          "name": "transactionCount",
          "type": "uint256"
        },
        {
          "internalType": "uint256",
          "name": "repaymentCount",
          "type": "uint256"
        },
        {
          "internalType": "uint256",
          "name": "defaultCount",
          "type": "uint256"
        },
        {
          "internalType": "bool",
          "name": "isInitialized",
          "type": "bool"
        }
      ],
      "stateMutability": "view",
      "type": "function",
      "constant": true
    },
    {
      "inputs": [
        {
          "internalType": "address",
          "name": "user",
          "type": "address"
        },
        {
          "internalType": "uint256",
          "name": "score",
          "type": "uint256"
        }
      ],
      "name": "updateScore",
      "outputs": [],
      "stateMutability": "nonpayable",
      "type": "function"
    },
    {
      "inputs": [
        {
          "internalType": "address",
          "name": "user",
          "type": "address"
        }
      ],
      "name": "addTransaction",
      "outputs": [],
      "stateMutability": "nonpayable",
      "type": "function"
    },
    {
      "inputs": [
        {
          "internalType": "address",
          "name": "user",
          "type": "address"
        }
      ],
      "name": "addRepayment",
      "outputs": [],
      "stateMutability": "nonpayable",
      "type": "function"
    },
    {
      "inputs": [
        {
          "internalType": "address",
          "name": "user",
          "type": "address"
        }
      ],
      "name": "addDefault",
      "outputs": [],
      "stateMutability": "nonpayable",
      "type": "function"
    },
    {
      "inputs": [
        {
          "internalType": "address",
          "name": "user",
          "type": "address"
        }
      ],
      "name": "calculateScore",
      "outputs": [
        {
          "internalType": "uint256",
          "name": "",
          "type": "uint256"
        }
      ],
      "stateMutability": "view",
      "type": "function",
      "constant": true
    },
    {
      "inputs": [
        {
          "internalType": "address",
          "name": "user",
          "type": "address"
        }
      ],
      "name": "getUserScoreDetails",
      "outputs": [
        {
          "internalType": "uint256",
          "name": "score",
          "type": "uint256"
        },
        {
          "internalType": "uint256",
          "name": "transactionCount",
          "type": "uint256"
        },
        {
          "internalType": "uint256",
          "name": "repaymentCount",
          "type": "uint256"
        },
        {
          "internalType": "uint256",
          "name": "defaultCount",
          "type": "uint256"
        }
      ],
      "stateMutability": "view",
      "type": "function",
      "constant": true
    }
  ],
  "bytecode": "0x608060405234801561000f575f80fd5b50335f806101000a81548173ffffffffffffffffffffffffffffffffffffffff021916908373ffffffffffffffffffffffffffffffffffffffff1602179055506111f08061005c5f395ff3fe608060405234801561000f575f80fd5b5060043610610091575f3560e01c80637d338fc4116100645780637d338fc4146101315780637effe568146101645780638da5cb5b14610182578063b65ce8d5146101a0578063f54dbc74146101bc57610091565b80631413d4c01461009557806323e957b6146100c957806349b5c22d146100f957806365d9772414610115575b5f80fd5b6100af60048036038101906100aa9190610e87565b6101d8565b6040516100c0959493929190610ee4565b60405180910390f35b6100e360048036038101906100de9190610e87565b610216565b6040516100f09190610f35565b60405180910390f35b610113600480360381019061010e9190610e87565b6102ba565b005b61012f600480360381019061012a9190610f78565b6105ea565b005b61014b60048036038101906101469190610e87565b6107c8565b60405161015b9493929190610fb6565b60405180910390f35b61016c6108e0565b6040516101799190610f35565b60405180910390f35b61018a6108e6565b6040516101979190611008565b60405180910390f35b6101ba60048036038101906101b59190610e87565b610909565b005b6101d660048036038101906101d19190610e87565b610af9565b005b6001602052805f5260405f205f91509050805f015490806001015490806002015490806003015490806004015f9054906101000a900460ff16905085565b5f60015f8373ffffffffffffffffffffffffffffffffffffffff1673ffffffffffffffffffffffffffffffffffffffff1681526020019081526020015f206004015f9054906101000a900460ff166102725761028a90506102b5565b60015f8373ffffffffffffffffffffffffffffffffffffffff1673ffffffffffffffffffffffffffffffffffffffff1681526020019081526020015f205f015490505b919050565b60015f8273ffffffffffffffffffffffffffffffffffffffff1673ffffffffffffffffffffffffffffffffffffffff1681526020019081526020015f206004015f9054906101000a900460ff16610346576040517f08c379a000000000000000000000000000000000000000000000000000000000815260040161033d9061107b565b60405180910390fd5b6001805f8373ffffffffffffffffffffffffffffffffffffffff1673ffffffffffffffffffffffffffffffffffffffff1681526020019081526020015f206002015f82825461039591906110c6565b9250508190555061035260015f8373ffffffffffffffffffffffffffffffffffffffff1673ffffffffffffffffffffffffffffffffffffffff1681526020019081526020015f205f015410156104cc57600560015f8373ffffffffffffffffffffffffffffffffffffffff1673ffffffffffffffffffffffffffffffffffffffff1681526020019081526020015f205f015f82825461043491906110c6565b9250508190555061035260015f8373ffffffffffffffffffffffffffffffffffffffff1673ffffffffffffffffffffffffffffffffffffffff1681526020019081526020015f205f015411156104cb5761035260015f8373ffffffffffffffffffffffffffffffffffffffff1673ffffffffffffffffffffffffffffffffffffffff1681526020019081526020015f205f01819055505b5b8073ffffffffffffffffffffffffffffffffffffffff167f165749c483d43d5a20edd04d444fba1191bd2cc4bfcb8d9a89708394702ed03660015f8473ffffffffffffffffffffffffffffffffffffffff1673ffffffffffffffffffffffffffffffffffffffff1681526020019081526020015f20600201546040516105529190610f35565b60405180910390a28073ffffffffffffffffffffffffffffffffffffffff167f66ead48cfe0e1d1aa8bad492e906c348dfcfeecbf3b7b2cdf9b1f3cfa42a294560015f8473ffffffffffffffffffffffffffffffffffffffff1673ffffffffffffffffffffffffffffffffffffffff1681526020019081526020015f205f01546040516105df9190610f35565b60405180910390a250565b5f811161062c576040517f08c379a000000000000000000000000000000000000000000000000000000000815260040161062390611169565b60405180910390fd5b60015f8373ffffffffffffffffffffffffffffffffffffffff1673ffffffffffffffffffffffffffffffffffffffff1681526020019081526020015f206004015f9054906101000a900460ff16610731576040518060a001604052808281526020015f81526020015f81526020015f81526020016001151581525060015f8473ffffffffffffffffffffffffffffffffffffffff1673ffffffffffffffffffffffffffffffffffffffff1681526020019081526020015f205f820151815f01556020820151816001015560408201518160020155606082015181600301556080820151816004015f6101000a81548160ff021916908315150217905550905050610776565b8060015f8473ffffffffffffffffffffffffffffffffffffffff1673ffffffffffffffffffffffffffffffffffffffff1681526020019081526020015f205f01819055505b8173ffffffffffffffffffffffffffffffffffffffff167f66ead48cfe0e1d1aa8bad492e906c348dfcfeecbf3b7b2cdf9b1f3cfa42a2945826040516107bc9190610f35565b60405180910390a25050565b5f805f8060015f8673ffffffffffffffffffffffffffffffffffffffff1673ffffffffffffffffffffffffffffffffffffffff1681526020019081526020015f206004015f9054906101000a900460ff166108305761028a5f805f93509350935093506108d9565b5f60015f8773ffffffffffffffffffffffffffffffffffffffff1673ffffffffffffffffffffffffffffffffffffffff1681526020019081526020015f206040518060a00160405290815f8201548152602001600182015481526020016002820154815260200160038201548152602001600482015f9054906101000a900460ff1615151515815250509050805f01518160200151826040015183606001519450945094509450505b9193509193565b61028a81565b5f8054906101000a900473ffffffffffffffffffffffffffffffffffffffff1681565b60015f8273ffffffffffffffffffffffffffffffffffffffff1673ffffffffffffffffffffffffffffffffffffffff1681526020019081526020015f206004015f9054906101000a900460ff16610a11576040518060a0016040528061028a8152602001600181526020015f81526020015f81526020016001151581525060015f8373ffffffffffffffffffffffffffffffffffffffff1673ffffffffffffffffffffffffffffffffffffffff1681526020019081526020015f205f820151815f01556020820151816001015560408201518160020155606082015181600301556080820151816004015f6101000a81548160ff021916908315150217905550905050610a68565b6001805f8373ffffffffffffffffffffffffffffffffffffffff1673ffffffffffffffffffffffffffffffffffffffff1681526020019081526020015f206001015f828254610a6091906110c6565b925050819055505b8073ffffffffffffffffffffffffffffffffffffffff167f6aaaa439e0a179aceb5673e1912869917530717c98bc1001496a80b51cf8810a60015f8473ffffffffffffffffffffffffffffffffffffffff1673ffffffffffffffffffffffffffffffffffffffff1681526020019081526020015f2060010154604051610aee9190610f35565b60405180910390a250565b60015f8273ffffffffffffffffffffffffffffffffffffffff1673ffffffffffffffffffffffffffffffffffffffff1681526020019081526020015f206004015f9054906101000a900460ff16610b85576040517f08c379a0000000000000000000000000000000000000000000000000000000008152600401610b7c9061107b565b60405180910390fd5b6001805f8373ffffffffffffffffffffffffffffffffffffffff1673ffffffffffffffffffffffffffffffffffffffff1681526020019081526020015f206003015f828254610bd491906110c6565b9250508190555061015e60015f8373ffffffffffffffffffffffffffffffffffffffff1673ffffffffffffffffffffffffffffffffffffffff1681526020019081526020015f205f01541115610d0b57603260015f8373ffffffffffffffffffffffffffffffffffffffff1673ffffffffffffffffffffffffffffffffffffffff1681526020019081526020015f205f015f828254610c739190611187565b9250508190555061015e60015f8373ffffffffffffffffffffffffffffffffffffffff1673ffffffffffffffffffffffffffffffffffffffff1681526020019081526020015f205f01541015610d0a5761015e60015f8373ffffffffffffffffffffffffffffffffffffffff1673ffffffffffffffffffffffffffffffffffffffff1681526020019081526020015f205f01819055505b5b8073ffffffffffffffffffffffffffffffffffffffff167f5b47e547846114931970654212f953e80f4afd3a40f6481b2595b6566d410f4860015f8473ffffffffffffffffffffffffffffffffffffffff1673ffffffffffffffffffffffffffffffffffffffff1681526020019081526020015f2060030154604051610d919190610f35565b60405180910390a28073ffffffffffffffffffffffffffffffffffffffff167f66ead48cfe0e1d1aa8bad492e906c348dfcfeecbf3b7b2cdf9b1f3cfa42a294560015f8473ffffffffffffffffffffffffffffffffffffffff1673ffffffffffffffffffffffffffffffffffffffff1681526020019081526020015f205f0154604051610e1e9190610f35565b60405180910390a250565b5f80fd5b5f73ffffffffffffffffffffffffffffffffffffffff82169050919050565b5f610e5682610e2d565b9050919050565b610e6681610e4c565b8114610e70575f80fd5b50565b5f81359050610e8181610e5d565b92915050565b5f60208284031215610e9c57610e9b610e29565b5b5f610ea984828501610e73565b91505092915050565b5f819050919050565b610ec481610eb2565b82525050565b5f8115159050919050565b610ede81610eca565b82525050565b5f60a082019050610ef75f830188610ebb565b610f046020830187610ebb565b610f116040830186610ebb565b610f1e6060830185610ebb565b610f2b6080830184610ed5565b9695505050505050565b5f602082019050610f485f830184610ebb565b92915050565b610f5781610eb2565b8114610f61575f80fd5b50565b5f81359050610f7281610f4e565b92915050565b5f8060408385031215610f8e57610f8d610e29565b5b5f610f9b85828601610e73565b9250506020610fac85828601610f64565b9150509250929050565b5f608082019050610fc95f830187610ebb565b610fd66020830186610ebb565b610fe36040830185610ebb565b610ff06060830184610ebb565b95945050505050565b61100281610e4c565b82525050565b5f60208201905061101b5f830184610ff9565b92915050565b5f82825260208201905092915050565b7f55736572206e6f7420696e697469616c697a65640000000000000000000000005f82015250565b5f611065601483611021565b915061107082611031565b602082019050919050565b5f6020820190508181035f83015261109281611059565b9050919050565b7f4e487b71000000000000000000000000000000000000000000000000000000005f52601160045260245ffd5b5f6110d082610eb2565b91506110db83610eb2565b92508282019050808211156110f3576110f2611099565b5b92915050565b7f53636f7265206d75737420626520706f736974697665202d20636865636b20735f8201527f636f726500000000000000000000000000000000000000000000000000000000602082015250565b5f611153602483611021565b915061115e826110f9565b604082019050919050565b5f6020820190508181035f83015261118081611147565b9050919050565b5f61119182610eb2565b915061119c83610eb2565b92508282039050818111156111b4576111b3611099565b5b9291505056fea26469706673582212203e56ad6abb236d6a8806a13a21dbf72ec7504a5608a9fb81f99ee988f24a06db64736f6c63430008150033",
  "immutableReferences": {},
  "source": "\r\n// SPDX-License-Identifier: MIT\r\npragma solidity ^0.8.0;\r\n\r\n/**\r\n * @title TrustScore\r\n * @dev Manages user trust scores based on their financial behavior\r\n */\r\ncontract TrustScore {\r\n    address public owner;\r\n    \r\n    struct UserScore {\r\n        uint256 score;\r\n        uint256 transactionCount;\r\n        uint256 repaymentCount;\r\n        uint256 defaultCount;\r\n        bool isInitialized;\r\n    }\r\n    \r\n    // Base score for new users\r\n    uint256 public constant BASE_SCORE = 650;\r\n    \r\n    // Mapping from user address to their trust score data\r\n    mapping(address => UserScore) public userScores;\r\n    \r\n    // Events\r\n    event ScoreUpdated(address indexed user, uint256 newScore);\r\n    event TransactionAdded(address indexed user, uint256 transactionCount);\r\n    event RepaymentAdded(address indexed user, uint256 repaymentCount);\r\n    event DefaultAdded(address indexed user, uint256 defaultCount);\r\n    \r\n    constructor() {\r\n        owner = msg.sender;\r\n    }\r\n    \r\n    modifier onlyOwner() {\r\n        require(msg.sender == owner, \"Only owner can call this function\");\r\n        _;\r\n    }\r\n    \r\n    /**\r\n     * @dev Updates a user's trust score directly\r\n     * @param user The address of the user\r\n     * @param score The new score to set\r\n     */\r\n    function updateScore(address user, uint256 score) public {\r\n        require(score > 0, \"Score must be positive - check score\");\r\n        \r\n        if (!userScores[user].isInitialized) {\r\n            userScores[user] = UserScore({\r\n                score: score,\r\n                transactionCount: 0,\r\n                repaymentCount: 0,\r\n                defaultCount: 0,\r\n                isInitialized: true\r\n            });\r\n        } else {\r\n            userScores[user].score = score;\r\n        }\r\n        \r\n        emit ScoreUpdated(user, score);\r\n    }\r\n    \r\n    /**\r\n     * @dev Records a new transaction for a user\r\n     * @param user The address of the user\r\n     */\r\n    function addTransaction(address user) public {\r\n        if (!userScores[user].isInitialized) {\r\n            userScores[user] = UserScore({\r\n                score: BASE_SCORE,\r\n                transactionCount: 1,\r\n                repaymentCount: 0,\r\n                defaultCount: 0,\r\n                isInitialized: true\r\n            });\r\n        } else {\r\n            userScores[user].transactionCount += 1;\r\n        }\r\n        \r\n        emit TransactionAdded(user, userScores[user].transactionCount);\r\n    }\r\n    \r\n    /**\r\n     * @dev Records a loan repayment for a user\r\n     * @param user The address of the user\r\n     */\r\n    function addRepayment(address user) public {\r\n        require(userScores[user].isInitialized, \"User not initialized\");\r\n        \r\n        userScores[user].repaymentCount += 1;\r\n        \r\n        // Increase score on repayment (basic algorithm)\r\n        if (userScores[user].score < 850) {\r\n            userScores[user].score += 5;\r\n            if (userScores[user].score > 850) {\r\n                userScores[user].score = 850;\r\n            }\r\n        }\r\n        \r\n        emit RepaymentAdded(user, userScores[user].repaymentCount);\r\n        emit ScoreUpdated(user, userScores[user].score);\r\n    }\r\n    \r\n    /**\r\n     * @dev Records a loan default for a user\r\n     * @param user The address of the user\r\n     */\r\n    function addDefault(address user) public {\r\n        require(userScores[user].isInitialized, \"User not initialized\");\r\n        \r\n        userScores[user].defaultCount += 1;\r\n        \r\n        // Decrease score on default (basic algorithm)\r\n        if (userScores[user].score > 350) {\r\n            userScores[user].score -= 50;\r\n            if (userScores[user].score < 350) {\r\n                userScores[user].score = 350;\r\n            }\r\n        }\r\n        \r\n        emit DefaultAdded(user, userScores[user].defaultCount);\r\n        emit ScoreUpdated(user, userScores[user].score);\r\n    }\r\n    \r\n    /**\r\n     * @dev Calculates and returns a user's current trust score\r\n     * @param user The address of the user\r\n     * @return The calculated trust score\r\n     */\r\n    function calculateScore(address user) public view returns (uint256) {\r\n        if (!userScores[user].isInitialized) {\r\n            return BASE_SCORE;\r\n        }\r\n        \r\n        return userScores[user].score;\r\n    }\r\n    \r\n    /**\r\n     * @dev Gets all details of a user's trust score profile\r\n     * @param user The address of the user\r\n     * @return score The current trust score\r\n     * @return transactionCount Number of transactions\r\n     * @return repaymentCount Number of successful repayments\r\n     * @return defaultCount Number of defaults\r\n     */\r\n    function getUserScoreDetails(address user) public view returns (\r\n        uint256 score,\r\n        uint256 transactionCount,\r\n        uint256 repaymentCount,\r\n        uint256 defaultCount\r\n    ) {\r\n        if (!userScores[user].isInitialized) {\r\n            return (BASE_SCORE, 0, 0, 0);\r\n        }\r\n        \r\n        UserScore memory userScore = userScores[user];\r\n        return (\r\n            userScore.score,\r\n            userScore.transactionCount,\r\n            userScore.repaymentCount,\r\n            userScore.defaultCount\r\n        );\r\n    }\r\n}\r\n",
  "sourcePath": "C:\\Users\\aaa\\Downloads\\trustbond\\contracts\\TrustScore.sol",
  "compiler": {
    "name": "solc",
    "version": "0.8.21+commit.d9974bed.Emscripten.clang"
  },
  "schemaVersion": "3.4.16",
  "updatedAt": "2025-04-23T14:00:38.397Z",
  "networkType": "ethereum",
  "devdoc": {
    "details": "Manages user trust scores based on their financial behavior",
    "kind": "dev",
    "methods": {
      "addDefault(address)": {
        "details": "Records a loan default for a user",
        "params": {
          "user": "The address of the user"
        }
      },
      "addRepayment(address)": {
        "details": "Records a loan repayment for a user",
        "params": {
          "user": "The address of the user"
        }
      },
      "addTransaction(address)": {
        "details": "Records a new transaction for a user",
        "params": {
          "user": "The address of the user"
        }
      },
      "calculateScore(address)": {
        "details": "Calculates and returns a user's current trust score",
        "params": {
          "user": "The address of the user"
        },
        "returns": {
          "_0": "The calculated trust score"
        }
      },
      "getUserScoreDetails(address)": {
        "details": "Gets all details of a user's trust score profile",
        "params": {
          "user": "The address of the user"
        },
        "returns": {
          "defaultCount": "Number of defaults",
          "repaymentCount": "Number of successful repayments",
          "score": "The current trust score",
          "transactionCount": "Number of transactions"
        }
      },
      "updateScore(address,uint256)": {
        "details": "Updates a user's trust score directly",
        "params": {
          "score": "The new score to set",
          "user": "The address of the user"
        }
      }
    },
    "title": "TrustScore",
    "version": 1
  },
  "userdoc": {
    "kind": "user",
    "methods": {},
    "version": 1
  }
}